:100000000C94E9000C9411010C9411010C94110151
:100010000C9411010C9411010C9411010C94110118
:100020000C9411010C9411010C94B7040C94290543
:100030000C9411010C9411010C9411010C941101F8
:100040000C9411010C9411010C9411010C941101E8
:100050000C9411010C9411010C9411010C946D0479
:100060000C9411010C9411010C9411010C941101C8
:100070000C9411010C9411010C9411010C941101B8
:100080000C9411010C9411010C9411010C941101A8
:100090000C9411010C9411010C9411010C94110198
:1000A0000C9411010C9411010C9411012D023002D9
:1000B0001F02230229025102510251023402380266
:1000C0003C024202460251024C02070605040100AE
:1000D000080A0B0C0D09000000002300260029006F
:1000E0002C002F00080B000202020100090400008E
:1000F0000102020000052400100105240101010491
:1001000024020605240600010705810310004009AA
:10011000040100020A000000070502024000000777
:100120000583024000000403090412010002EF02EB
:1001300001404123378000010102030141726475CF
:10014000696E6F204C4C430041726475696E6F207C
:100150004D6963726F0000000000240027002A0030
:100160002D00300000000000250028002B002E008C
:10017000310004040404040304050202020204031F
:100180000202020206060606060604040202020431
:100190000404080201104080401020408040800884
:1001A00002040180402010020110801020404020F5
:1001B0000000000200090F0000030401000C000011
:1001C000000000000000000000000000000000002F
:1001D000670711241FBECFEFDAE0DEBFCDBF11E00D
:1001E000A0E0B1E0E2E6F1E102C005900D92A63296
:1001F000B107D9F721E0A6E2B1E001C01D92A7390D
:10020000B207E1F710E0C9EED0E004C02197FE018B
:100210000E94A408C83ED107C9F70E947C070C942D
:10022000AF080C94000020919601211103C08FEFBC
:100230009FEF08955FB7F89422E02093E9002091A2
:10024000F20030E01216130614F421E030E0422FE1
:10025000FC0184E6415038F0289A809395019091F2
:10026000F1009193F7CF2115310521F08091F20033
:10027000882319F05FBFC90108958BE68093E800D9
:10028000F9CF2FB7F89483E08093E9009091E800CC
:10029000892F807295FF04C09091F20080E4891B41
:1002A0002FBF0895CF92DF92EF92FF920F931F938B
:1002B000CF93DF936C017A018B01C0E0D0E0CE15C3
:1002C000DF0581F0D8016D918D01D601ED91FC9192
:1002D0000190F081E02DC6010995892B11F021963E
:1002E000EECF7E01C701DF91CF911F910F91FF905B
:1002F000EF90DF90CF900895CF93DF931F92CDB70B
:10030000DEB76983DC01ED91FC910280F381E02D81
:1003100041E050E0BE016F5F7F4F09950F90DF9184
:10032000CF91089583E08093E9008091F2008823C3
:1003300019F08AE38093E80008950E94410190E05B
:100340000895CF93DF931F92CDB7DEB7FC0184856C
:10035000958597FD05C02FEF3FEF358724870BC0AC
:10036000CE0101960E941301019719F4898190E052
:1003700002C08FEF9FEF0F90DF91CF9108950F9301
:100380001F93CF93DF931F92CDB7DEB78C01FC0193
:100390008485958597FF0EC0CE0101960E941301BA
:1003A000019719F4898190E002C08FEF9FEFF80167
:1003B00095878487F801848595850F90DF91CF918B
:1003C0001F910F910895FC018485958597FD0BC0C1
:1003D0009FB7F89482E08093E9008091F2009FBF7C
:1003E00090E0019608959FB7F89482E08093E90029
:1003F0008091F2009FBF90E00895089580E090E022
:10040000089580913B0181110DC082E080933701F6
:1004100084E08093380110923A011092390181E012
:1004200080933B0187E391E0089590E0FC013197D0
:10043000EF30F105B0F5EA5AFF4F0C94A408809113
:1004400080008F7703C0809180008F7D8093800033
:10045000089580918000877FF9CF84B58F7702C09F
:1004600084B58F7D84BD0895809190008F7707C0FB
:10047000809190008F7D03C080919000877F809352
:10048000900008958091C0008F7703C08091C000D4
:100490008F7D8093C00008958091C200877F8093F4
:1004A000C20008951F93CF93DF93282F30E0F90106
:1004B000E055FE4F8491F901EF56FE4FD491F901BA
:1004C000EE58FE4FC491CC23C1F0162F81110E942B
:1004D0001502EC2FF0E0EE0FFF1FEC59FE4FA59137
:1004E000B4919FB7F894111104C08C91D095D82382
:1004F00002C0EC91DE2BDC939FBFDF91CF911F9167
:100500000895CF93DF9390E0FC01EF56FE4F2491C6
:10051000FC01EE58FE4F8491882361F190E0880F32
:10052000991FFC01EA5AFE4FC591D491FC01EC5988
:10053000FE4FA591B491611109C09FB7F8948881CD
:10054000209582238883EC912E230BC0623061F4C6
:100550009FB7F8948881322F309583238883EC915C
:100560002E2B2C939FBF06C08FB7F894E8812E2BBB
:1005700028838FBFDF91CF9108953FB7F894809182
:10058000330190913401A0913501B091360126B527
:10059000A89B05C02F3F19F00196A11DB11D3FBFBB
:1005A000BA2FA92F982F8827820F911DA11DB11D49
:1005B000BC01CD0142E0660F771F881F991F4A9545
:1005C000D1F708958F929F92AF92BF92CF92DF9210
:1005D000EF92FF926B017C010E94BD024B015C0116
:1005E000C114D104E104F104F1F00E94BD02DC0168
:1005F000CB0188199909AA09BB09883E9340A10536
:10060000B10570F321E0C21AD108E108F10888EEC3
:10061000880E83E0981EA11CB11CC114D104E10412
:10062000F10419F7DDCFFF90EF90DF90CF90BF90EE
:10063000AF909F908F9008958F929F92AF92BF92AC
:10064000CF92DF92EF92FF920F931F93CF93DF939E
:100650006C017B018A0180910B01882309F45CC045
:1006600080919601882309F457C08091440180FF4E
:1006700005C08091E00082608093E000E801B12C29
:100680008AEFA82E93E0892E2AE3922E209711F468
:10069000BB20D9F10E94410181110AC0AA94AA206D
:1006A000D9F161E070E080E090E00E94E202EECFDC
:1006B000282F30E0C217D3070CF48C2F9FB7F89483
:1006C0008092E9002091E80025FF1DC0282F30E02E
:1006D000C21BD30BF701815020F041914093F100F0
:1006E000FACFE20EF31EBB2019F09092E8000AC088
:1006F0008091E80085FD07C09092E800BB24B39488
:10070000209709F0B12C9FBFC1CF5D9A84E68093FA
:1007100043011016110644F081E090E0F601938346
:10072000828380E090E001C0C801DF91CF911F91EA
:100730000F91FF90EF90DF90CF90BF90AF909F9080
:100740008F90089540912A0150912B01209128010A
:100750003091290142175307B4F49091E800957045
:10076000E1F39091E80092FD19C08093F10080912F
:100770002A0190912B0101968F739927892B19F4E7
:100780008EEF8093E80080912A0190912B010196D1
:1007900090932B0180932A0181E0089580E00895D1
:1007A000DF92EF92FF920F931F93CF93DF93D82E98
:1007B000F92EE42E062F10E0C8010196880F0E9442
:1007C000A20383E00E94A203CD2DDF2D0C0F1D1F7D
:1007D000C017D10789F0E7FE03C0FE01849101C074
:1007E00088810E94A203F82E80E00E94A2038F213C
:1007F00021968111EDCF01C081E0DF91CF911F9152
:100800000F91FF90EF90DF900895DF92EF92FF92AB
:100810000F931F93CF93DF93D82E8A017B01E40EB1
:10082000F51EEB01CE15DF0571F0D7FE03C0FE010A
:10083000849101C088810E94A20321968111F2CF88
:100840008FEF9FEF01C0C801DF91CF911F910F91F2
:10085000FF90EF90DF9008950F931F93CF93DF9356
:100860001F92CDB7DEB782E0898342E450E064EEA8
:1008700070E080E80E9405040E940102DC011296EB
:100880000D911C9113970115110589F0D801ED9177
:10089000FC910280F381E02DBE016F5F7F4FC801A4
:1008A000099597FD04C0F80100851185ECCF898179
:1008B0000F90DF91CF911F910F910895615030F00B
:1008C0002091F100FC0120830196F8CF289A84E65C
:1008D0008093950108950E94AA081F920F920FB667
:1008E0000F9211242F933F938F939F93AF93BF93B6
:1008F00080912F0190913001A0913101B09132018E
:1009000030912E0123E0230F2D3720F40196A11DF5
:10091000B11D05C026E8230F0296A11DB11D20932D
:100920002E0180932F0190933001A0933101B09359
:1009300032018091330190913401A0913501B09141
:1009400036010196A11DB11D8093330190933401AE
:10095000A0933501B0933601BF91AF919F918F91D4
:100960003F912F910F900FBE0F901F9018951F92DF
:100970000F920FB60F9211248F939F938091E100F5
:100980009091E100937F9093E10083FF0FC010925C
:10099000E90091E09093EB001092EC0092E39093C9
:1009A000ED001092960198E09093F00082FF20C035
:1009B00093E09093E9009091F200992319F09AE363
:1009C0009093E80090914301992339F0909143016D
:1009D000915090934301992389F190919501992326
:1009E00039F090919501915090939501992341F19F
:1009F00084FF10C08091E2008E7E81608093E200CF
:100A00008091E1008F7E8093E100809144018E7E91
:100A1000806111C080FF16C08091E2008E7E8061EF
:100A20008093E2008091E1008E7E8093E1008091CE
:100A300044018E7E81608093440104C05D98CDCFD7
:100A40002898D6CF9F918F910F900FBE0F901F9037
:100A500018951F920F920FB60F921124CF92DF922A
:100A6000EF92FF920F931F932F933F934F935F93B8
:100A70006F937F938F939F93AF93BF93EF93FF9366
:100A8000CF93DF93CDB7DEB76C97DEBFCDBF1092AB
:100A9000E9008091E80083FFFBC168E0CE01459644
:100AA0000E945E0482EF8093E8008D8987FF05C075
:100AB0009091E80090FFFCCF03C09EEF9093E80078
:100AC000982F907609F0C6C09E894F89588D2F893E
:100AD000F88C91110CC0803829F480912D018093FD
:100AE000F10002C01092F1001092F10045C1913066
:100AF00051F4811141C14130510509F03DC180914E
:100B00002D018D7F0BC0933061F4811135C14130CF
:100B1000510509F031C180912D01826080932D0132
:100B20002BC1953049F48091E80080FFFCCF822FE3
:100B300080688093E30020C1963009F05EC00B8D81
:100B40001C8D22E01092E90010922B0110922A01D4
:100B5000F21232C010922901109228010E942C0436
:100B600099E0BE016F5F7F4FDB01E92F1D92EA958F
:100B7000E9F79983FA8291E09E8390EA98879AEF49
:100B8000998720912A0130912B01275F3F4F3C83A9
:100B90002B838D831092E90010922B0110922A0171
:100BA000109329010093280149E050E080E00E9461
:100BB00005040E942C04E0C0109329010093280131
:100BC0000E940102DC0112960D911C9113970115F0
:100BD000110509F4BBC0D801ED91FC910480F581A9
:100BE000E02DBE016B5E7F4FC8010995009709F0AB
:100BF000C7C0F80100851185EACF973009F445C1D7
:100C0000983021F481E08093F100B6C0993009F06A
:100C1000B3C0837009F039C1EDE0F1E081E031E06B
:100C200096E32081211109C08EE78093EA0010929B
:100C3000EA008F89809396019FC08093E9003093EA
:100C4000EB0021912093EC009093ED008F5F8730B3
:100C500041F7EACF8B8D9C8D1092E90010922B0109
:100C600010922A019093290180932801898D811186
:100C700053C08E899D89913A49F4813209F005C1AA
:100C800047E050E064E071E080E0BBC0913209F0E1
:100C9000FCC0833269F48F89988DA0E0B0E0809326
:100CA000000190930101A0930201B093030164C07D
:100CB000803269F48091E80082FFFCCF67E084E035
:100CC00091E00E945E048BEF8093E80055C0823271
:100CD00009F052C08F8980930B01EEEFFFE78591F9
:100CE00094918B3F9C4D19F0E0E0F8E002C0EEEFEC
:100CF000FAE08091040190910501A0910601B09164
:100D00000701803B9440A105B10509F09EC0809188
:100D10000B0180FF79C099C00E940102FC01028191
:100D200013810115110509F4B0C0D801ED91FC91B2
:100D30000190F081E02DBE016B5E7F4FC8010995E7
:100D400081111AC0F80100851185EBCFF1E0FF1683
:100D500009F44EC0F3E0FF1298C08F89882309F48C
:100D60004AC0823089F440E86DE088E491E00E9456
:100D7000D003882309F489C08EEF8093E80088C0EF
:100D800018161906CCF381C0813029F440E86BE0D5
:100D90008CE391E0ECCF833009F077C00E94010230
:100DA000DC011296ED90FC9013978E010F5F1F4FA0
:100DB0006801E114F10479F0D701ED91FC9106800E
:100DC000F781E02DB801C7010995080F111DF70142
:100DD000E084F184EECFD8011C92F601019000204E
:100DE000E9F73197BF016C197D0940E0C601BFCF1B
:100DF0006AE271E002C066E271E0FB01449150E0FA
:100E000080E80E940504B8CFEE3F2AE0F20751F0D7
:100E1000808191818737A7E79A0721F09093FF0A95
:100E20008093FE0A87E797E7918380838091600033
:100E300080932C019BE088E10FB6F894A8958093ED
:100E400060000FBE9093600097CF808191818737BB
:100E5000974709F091CFA8958091600088618093B1
:100E6000600080912C0180936000EE3FBAE0FB07A8
:100E700039F08091FE0A9091FF0A918380837CCFA4
:100E80001092FF0A1092FE0A77CF81E28093EB0066
:100E90006C960FB6F894DEBF0FBECDBFDF91CF9139
:100EA000FF91EF91BF91AF919F918F917F916F9142
:100EB0005F914F913F912F911F910F91FF90EF9074
:100EC000DF90CF900F900FBE0F901F901895E5E424
:100ED000F1E01382128288EE93E0A0E0B0E0848318
:100EE0009583A683B78387E191E0918380838FEF19
:100EF0009FEF958784870895789484B5826084BD38
:100F000084B5816084BD85B5826085BD85B581600D
:100F100085BD80916E00816080936E00109281008B
:100F20008091810082608093810080918100816046
:100F30008093810080918000816080938000809107
:100F400091008260809391008091910081608093F4
:100F50009100809190008160809390008091C10009
:100F600084608093C1008091C10082608093C10041
:100F70008091C10081608093C1008091C300816035
:100F80008093C3008091C00082608093C0008091F4
:100F9000C20081608093C20080917A008460809357
:100FA0007A0080917A00826080937A0080917A0042
:100FB000816080937A0080917A00806880937A00C3
:100FC0001092960110922D01109244018091D70049
:100FD00081608093D70080EA8093D80089B58061D2
:100FE00089BD89B5826089BD09B400FEFDCF61E08D
:100FF00070E080E090E00E94E2028091D8008F7C57
:1010000080618093D8008091E000807F8093E00031
:101010008091E1008E7E8093E1008DE08093E2007C
:10102000559A209A5D98289860E08EE10E9481028E
:1010300060E081E10E94810260E082E00E94810222
:1010400061E084E00E94810261E086E00E9481020A
:1010500060E084E00E94520260E086E00E9452025A
:101060005AEC652E50E0752E62EBE62E61E0F62E0E
:1010700073E9C72E71E0D72EE4E7AE2EE1E0BE2E75
:10108000F0E08F2EF0E09F2EF301849190917B0091
:1010900083FB002700F910E0980145E0220F331F81
:1010A0004A95E1F79F7D292B20937B008770806410
:1010B00080937C0080917A00806480937A00809194
:1010C0007A0086FDFCCFC091780080917900D0E055
:1010D000D82BD0932701C0932601F7018491F60104
:1010E0005490F5014490442031F181110E94150281
:1010F000E42DF0E0EE0FFF1FEA52FF4FA591B491EF
:101100008C915822C1F0C132D34024F061E086E0D6
:101110000E94520261E084E00E94520260E67AEE90
:1011200080E090E00E94E2028114910409F4ACCFC7
:101130000E940000A9CF60E086E00E94520260E0B9
:1011400084E00E945202F0CFEE0FFF1F0590F49151
:10115000E02D099481E090E0F8940C94AF08F894A5
:02116000FFCFBF
:10116200FFFFFFFF00E100000000000000C18081DE
:10117200000000000000007C011C039D019201E3BD
:0611820001A101BF010004
:00000001FF
